:100000000C9430000C9400000C9400000C94000040
:100010000C9400000C9400000C9400000C94000060
:100020000C9400000C9400000C9400000C94000050
:100030000C9400000C9400000C9400000C94000040
:100040000C9400000C9400000C9400000C94000030
:100050000C940000000000000400040054000000A4
:10006000F894EE27ECBBF1E0F5BFE5BF8DE0A2E030
:10007000BB27ED938A95E9F780E098E0A0E6ED9341
:100080000197E9F7E8E5F0E085919591009761F037
:10009000A591B59105901590BF01F00105900D92C5
:1000A0000197E1F7FB01F0CFEFE5EDBFE8E0EEBF30
:1000B000C0E6D2E00C945C00EFEFE4BBE1BBAB9A8E
:1000C000AA9AA99AAB98D20125D078D0AB9A7DD0C4
:1000D000AA98D20125D072D0AA9A77D0A998D20135
:1000E00024D06CD0A99A71D0F30131963F01E5E498
:1000F000F0E0E615F7052CF466247724F20131963A
:100100002F01E7EEF3E0E415F50514F4442455243B
:10011000D9CFFFCF5ED0EAE0F0E00E941C014CC0D6
:1001200058D0E4E6F0E05AD047C053D0E8EEF3E010
:1001300055D0DF01EAE0F0E00E9417013DC0BA931C
:10014000AA93E881F981309711F4E0EC35C0E130F1
:10015000A0E0FA0711F4E9EF2FC0E230A0E0FA07BF
:1001600011F4E4EA29C0E330A0E0FA0711F4E0E377
:1001700023C0E430A0E0FA0711F4E9E91DC0E5303E
:10018000A0E0FA0711F4E2E917C0E630A0E0FA07B0
:1001900011F4E2E811C0E730A0E0FA0711F4E8EF4B
:1001A0000BC0E830A0E0FA0711F4E0E805C0E93040
:1001B000A0E0FA0709F4E0E922960895DF01BFDF25
:1001C000E2BBA5E0B0E00C94F600A1E0B0E00C9436
:1001D000F600BA93AA93A881B98108950E941C01E0
:1001E000DF01EAE0F0E00E9417010895109639F06F
:1001F00080ED97E00197F1F7A8951197C9F7089559
:10020000F195E195F04008950024112490E1AA0FA2
:10021000BB1F001C111C0E1A1F0A18F40E0E1F1E05
:1002200001C0A1609A9599F7FD01D001089512D0FF
:10023000EBDF0EF4E5DF0895E894B7FF04C0A09566
:10024000B09511966894F7FDDBDFDEDFFD010EF45B
:10025000D7DF0895E894F7FF02C0D2DF6894B7FFB4
:1002600006C0A095B095119600F8039400FA089581
:00000001FF
